:100000000C94CE010C9406020C9406020C94060289
:100010000C9406020C9406020C9406020C94060240
:100020000C9406020C9406020C949A1C0C946E1DFF
:100030000C94BE170C9406020C9406020C94060253
:100040000C9406020C9406020C9406020C94060210
:100050000C9406020C9445180C9406020C940602AB
:100060000C9406020C9406020C9406020C940602F0
:100070000C9406020C9406020C9406020C940602E0
:100080000C9406020C9406020C9406020C940602D0
:100090000C9406020C9406020C9406020C940602C0
:1000A0000C9406020C9406020C9406020000002038
:1000B000E0800080800000000000000000000000E0
:1000C000000000000000000000F0D010B0E00000D0
:1000D000000000000000F8000000000038F060E0C0
:1000E000301010B0E000000000F0E0C000000000A0
:1000F00010F0C0001030000010F0E0C00000000060
:1001000018F0C000000000C070E000202030303047
:10011000F010101010108060301010181030E080B7
:10012000E030101010F0C0000000000000000808CF
:10013000087F7C090F78180C0CF83C66424B4F4640
:10014000400000000000000000C1BFB3838383C2F1
:100150007C38000000001F3860C0C0C0407F00072E
:100160007EE00E1B101030206000FFFC03060C1810
:100170003060DFFC0000077CE000FF7803060C180D
:100180003060FFFC701C07050407FEC00000000083
:100190007FC00000000E3F60C0C08080C040301FA4
:1001A000033FF00C1E113030206040004C7562623D
:1001B000730053636F74742000AE5DAF5D00000088
:1001C00000000000002A2B280000000000000000B2
:1001D000000000000000000029000000002C1E3478
:1001E00020212224342627252E362D3738271E1F7E
:1001F000202122232425263333362E37381F0405A9
:10020000060708090A0B0C0D0E0F10111213141516
:10021000161718191A1B1C1D2F3130232D350405F4
:10022000060708090A0B0C0D0E0F101112131415F6
:10023000161718191A1B1C1D2F3130354C000000E1
:1002400000000000000000000000000000000000AE
:10025000000000000000000000000000000000009E
:10026000007E0F00D4FFFFFFC70000007800AE0043
:10027000AF00DA0281FFD9F1DB20A4A62EAF00A0E7
:10028000C000A1C800AED580A81FD300408D1420A7
:10029000000C0353004C0020004B00420000002ED5
:1002A00003250020005600610069006200680061BB
:1002B0000076002000530072006900760061007330
:1002C0000074006100760061002000250000000439
:1002D00003090409023B00020100A0FA090400001E
:1002E000010301010009211101000122400007055D
:1002F0008103080001090401000103000000092135
:1003000011010001223B00070582032000011201B8
:10031000000200000008EDFE0000010001020001E3
:1003200005010906A1018506050719E029E7150061
:1003300025019508750181020507190029EF1500AF
:10034000250195F07501810205081901290595051A
:1003500075019102950175039101C005010906A17E
:1003600001050719E029E7150025019508750181A8
:10037000029501750881010507190029FF1500265E
:10038000FF009506750881000508190129059505E6
:1003900075019102950175039101C00011241FBEE2
:1003A000CFEFDAE0DEBFCDBF04B603FE18C0809108
:1003B000280490912904A0912A04B0912B0487303D
:1003C000904BA740B04B59F4109228041092290486
:1003D00010922A0410922B04E0E0F8E3099511E052
:1003E000A0E0B1E0EAE9FFE302C005900D92AE3172
:1003F000B107D9F724E0AEE1B1E001C01D92A83207
:10040000B207E1F70E9403110C94B51F0C94000091
:100410008E3A2DE5920729F08F3A9D4559F081E0FB
:100420000895FB0182818823D1F382EB91E00E9441
:10043000BC03F5CFFB018281882389F38CEA91E02C
:10044000F6CF82E0089560E071E08CEA90E00E94CF
:10045000AF1180E0089581E008950E940802089598
:1004600008950E9430020895A5E0B0E0EAE3F2E0CA
:100470000C943E1F49835A833091210189819A81CE
:10048000311119C0662399F0222389F00E94A9082E
:10049000182F682F89819A810E948E0869817A813C
:1004A000812F0E94F30E2596E3E00C945A1F0E94C0
:1004B0009B08182FF3CF0E94A90869817A81F1CF98
:1004C000FC01262F408151816281738184810E94C9
:1004D0003402089581E00895CF93DF93EC0160E04A
:1004E0000E946002BE010E943102DF91CF91089507
:1004F0000E942B1008950E942F10089508950E94C5
:10050000DD060E947E022FEF84E39CE021508040B4
:100510009040E1F700C0000008950E947F020E9411
:10052000691808950E947F020E948D1808950F9304
:100530001F93CF93DF938C0161E00E946002EC0176
:10054000B8010E942D02811106C080E0DF91CF9199
:100550001F910F910895B801CE010E941E158823A6
:10056000A1F3B801CE010E945313882371F3B8019F
:10057000CE010E949014882341F3F80182818823E0
:1005800061F0CB35FDE5DF0701F158F4C115ECE56D
:10059000DE0791F0CF3DDC4591F0C8010E942B02AF
:1005A000D5CFCD358DE5D80769F090F0C83ADD4557
:1005B000A1F70E949202C9CF0E948D02C6CF0E946D
:1005C0006F0DF7CF0E94A90CE8CF0E94B30CE5CFC6
:1005D0000E94B70CE2CF0E94A0170E94D3030E9492
:1005E0000B1308950E94D7030E94A5170895B0E049
:1005F000A0E0EDEFF2E00C943A1FE82FF0E0E354B6
:10060000FE4FD490282F26952695269530E0F901A7
:10061000E35AFD4F0491877010E0082E02C0159533
:1006200007950A94E2F701701127F901E35BFD4F8A
:10063000E490F12C082E02C0F594E7940A94E2F7B6
:1006400091E0E922FF24F901E35CFD4FC491D0E081
:1006500002C0D595C7958A95E2F7C170DD270115CF
:10066000110519F081EE0E942204E114F10419F041
:1006700086EE0E9422048D2D0E948E04E114F10466
:1006800019F086EE0E944C040115110519F081EE57
:100690000E944C04CD2B19F08CE20E948E04CDB741
:1006A000DEB7E7E00C94561FEF92FF920F931F9373
:1006B000CF93DF938C01F62E8AE0E82EF801849127
:1006C000882309F454C0813009F04DC0E801219617
:1006D000FE018491813091F42196FE0184910E9463
:1006E0008E048E010F5F1F4F8F2D815038F3EFE97D
:1006F000FFE03197F1F700C00000F7CF823039F406
:10070000E8012296FE0184910E942204EACF833000
:1007100039F4E8012296FE0184910E944C04E1CF55
:100720008430F9F6E8012296FE01249190E080E001
:10073000FE0131962053330B2A30310548F00197E2
:1007400080F2EFE9FFE03197F1F700C00000F7CF4A
:10075000E89EA001E99E500D1124C901840F951F48
:100760002491EF01E5CF0E94F702E801BACFCDB79F
:10077000DEB7E6E00C94571F60E00E945403089532
:1007800008950E94C003089581E008950E94C40363
:1007900008950895CF93C82F0E94C1038C2F0E9403
:1007A000C603CF91089580E00E94CA0308950E9475
:1007B00069160E94CA0308950E946916909120014B
:1007C000981721F0809320010E94CA030895ABE09E
:1007D000B0E0EDEEF3E00C943F1F4F83588769873C
:1007E0007A878B8761110E94F40B1E821D8285E03F
:1007F000FE013796DE01119601900D928A95E1F780
:100800008C819D81892B61F449815A816B817C8126
:100810008D819E810E941D0B2B96E2E00C945B1F44
:1008200089819A8189238F3F79F3CE0101960E94B5
:100830006A028111E9CFF0CFFC01808191810E9491
:10084000E3080895CF93C82F8823B9F08CEF8C0F5D
:10085000813AA8F46C2F80910001909101010E94CF
:10086000D016882329F08C2F0E94B40B0E94150CFF
:100870008C2F0E94AC0B0E94150CCF91089580E242
:100880008C0F8830D0F7C77081E001C0880FCA95FF
:10089000EAF70E94D70BEFCF882339F19CEF980F2E
:1008A000913A28F40E94B40B0E94150C089590E22E
:1008B000980F983050F4877091E001C0990F8A9595
:1008C000EAF7892F0E94DD0BEFCF9BE5980F93305D
:1008D00028F490E080E00E9490160895885A8731AD
:1008E00020F490E080E00E94A61608951F93CF9315
:1008F000DF93182FEB010E942204209739F4812FF7
:100900000E944C04DF91CF911F9108958FE99FE0E1
:100910000197F1F700C000002197EFCF70E060E091
:10092000893311F460E570E00E947604089588230D
:1009300021F00E94D70B0E94150C0895882321F006
:100940000E94DD0B0E94150C0895B0E0A0E0EBEAD8
:10095000F4E00C94381F6C01D62FC72FFC011281D4
:10096000F580F2949FE0F9220E94CD0BE82E8823B7
:10097000B9F0E12E1123A1F08C2F807F803421F07B
:1009800080E28D0F8830D0F080910E0282FF16C079
:1009900082E00E94780C0E94CD0B91E0E82EE926BF
:1009A000BC2EB2948FE0B822FBE0FB1508F468C0BF
:1009B000EB2DF0E0E954F04E0C94291FE12CF0CF20
:1009C0000C2F0F70C07F11F00295007F112399F05A
:1009D000002359F080E28D0F883010F0D11107C04C
:1009E000802F0E94D70B0E94150C8D2F41C0802FA5
:1009F0000E94E70BF8CF8D2F0E944C04002309F4CE
:100A00003FC080E28D0F883010F0D11104C0802FDC
:100A10000E94DD0B03C0802F0E94ED0B0E94150C7D
:100A20002FC00C2F0F70C07FC03211F00295007FD5
:100A3000DD2381F0D13009F463C0112309F46DC0C6
:100A4000FF2009F463C0F601858180FFCECF8F704F
:100A500085835CC080910E0282FD33C0112359F062
:100A6000002329F0802F0E94D70B0E94150C80E0F4
:100A70000E94220405C080E00E944C040111C7CFEF
:100A8000EB2DE850FF0B349720F40E9469160E946A
:100A9000CA03EE2089F00E94C90B80FD0DC0F6014B
:100AA00012820E94C30B0E949607C6010E94A906EB
:100AB0000E94C30B0E94B807CDB7DEB7E9E00C94E3
:100AC000541F112389F0F11006C00E94F70B802BF0
:100AD0000E949704D5CF21E0F212F7CF0E94F70BC6
:100AE000802B0E94FE0BCCCFF11006C00E940B0C95
:100AF000802F0E949E04C4CF31E0F31609F2F6CF96
:100B0000112331F085E08F1508F4BACF802FE0CFA4
:100B100094E09F1508F4B4CFEBCFFF2049F3D9330D
:100B200049F4FFEF27EE33E0F15020403040E1F789
:100B300000C000008D2F0E944C04A2CF8C2F837028
:100B400009F041C011119CCF4D2F42954695477039
:100B5000440F440F0D2F0F7010E030E020E0042E02
:100B600004C0000F111F221F331F0A94D2F760E048
:100B700070E0CB01D4FF0FC06FE070E080E090E048
:100B800004C0660F771F881F991F4A95D2F760959A
:100B9000709580959095C695C695C370602B712B06
:100BA000822B932BC23049F058F4C13019F00E94C7
:100BB000410766CF0E942E0763CF0E94540760CF83
:100BC0000E942B075DCF8695112311F08C2F817029
:100BD000882309F455CF4D2F429546954770440F11
:100BE000440F0D2F0F7010E030E020E0042E04C001
:100BF000000F111F221F331F0A94D2F760E070E02C
:100C0000CB01D4FF0FC06FE070E080E090E004C043
:100C1000660F771F881F991F4A95D2F760957095C8
:100C200080959095C695C695C370602B712B822BCD
:100C3000932BC23049F058F4C13019F00E941108CA
:100C40001FCF0E94FE071CCF0E94240819CF0E94CC
:100C50006D0716CFCF70112329F08C2F0E949607B5
:100C60008D2F36CF8D2F0E949E048C2F0E94B807A7
:100C700007CFD23F51F160F4D03FB9F0D13F81F0BE
:100C8000112309F449C0F110B0CE8C2F8F7121C00F
:100C9000D33F11F1D43FA1F780910E0282FD26C00F
:100CA0008C2F8F71112311F314C0112349F084E0AC
:100CB0008F1508F4E5CE8C2F8F710E94DC07E0CEF3
:100CC00095E09F1508F4DCCEF6CF8C2F8F711111B3
:100CD000CDCF0E949607D4CE112329F08C2F8F718F
:100CE0000E948007CDCE0E947A07CACE112349F018
:100CF000CF718C2F0E94960763E08C2F0E945A0CB4
:100D0000BFCE81E00E94780CE1E0EF1508F0B8CE8C
:100D100082E00E94780CB4CEF11001CF8C2F8F713D
:100D2000A5CF0F931F93CF93DF93EC016881798157
:100D30008A810E94EE088C010E9437080E942A07CF
:100D4000B801CE010E94A504DF91CF911F910F91B0
:100D50000895CF93DF93EC018B819C81892B29F03F
:100D60008881998189238F3F51F4DF91CF91089534
:100D7000CE010E949106CE010E946C02F6CFCE01F8
:100D80000E9497028111F4CF0E94CD0B882369F352
:100D90008A81882351F380910E0282FFE6CF82E0A0
:100DA0000E94780CE2CF0E94F40B0E94150C08956B
:100DB0000E94BC0B0E94D30608950E94E40B0E947F
:100DC000D806089592959F70963091F058F4925FEE
:100DD0009F70923058F4803F19F030F4883E30F420
:100DE00081E008959A5FF4CF843FD1F380E00895C5
:100DF000883EB0F3813FD1F7F3CFFC018081918130
:100E00000E94E3080E94E2060895A5E0B0E0EBE04E
:100E1000F7E00C943F1F2596E2E00C945B1FA6E0E0
:100E2000B0E0E5E1F7E00C943F1F2696E2E00C9479
:100E30005B1F08950E94190708950E941A07609386
:100E40002B0170932C0180932D0190932E010E9411
:100E5000D306089508950E941D0708950F931F93C8
:100E600000912B0110912C0120912D0130912E0128
:100E7000602B712B822B932B0E941D071F910F91CA
:100E800008950F931F9300912B0110912C01209135
:100E90002D0130912E0160237123822393230E9420
:100EA0001D071F910F9108950F931F9300912B0120
:100EB00010912C0120912D0130912E016027712776
:100EC000822793270E941D071F910F9108950E946A
:100ED000190708950E94670708950E946A076093A2
:100EE0002701709328018093290190932A010E9481
:100EF000D306089560E070E0CB010E946D0708956D
:100F00000F931F9341E050E060E070E08A019B0185
:100F100004C0000F111F221F331F8A95D2F7C90189
:100F2000B8010E946D071F910F9108950F931F93B1
:100F300041E050E060E070E004C0440F551F661FC0
:100F4000771F8A95D2F78091270190912801A0916F
:100F50002901B0912A018A019B01082B192B2A2B08
:100F60003B2BC901B8010E946D071F910F91089595
:100F70000F931F9341E050E060E070E004C0440F25
:100F8000551F661F771F8A95D2F7CB01BA0160956E
:100F900070958095909500912701109128012091DE
:100FA000290130912A0160237123822393230E9417
:100FB0006D071F910F9108950F931F9341E050E02B
:100FC00060E070E004C0440F551F661F771F8A95CC
:100FD000D2F78091270190912801A0912901B09129
:100FE0002A018A019B01082719272A273B27C901C3
:100FF000B8010E946D071F910F9108950F931F93E1
:1010000000912701109128012091290130912A0196
:10101000602B712B822B932B0E946D071F910F91D8
:1010200008950F931F93009127011091280120919B
:10103000290130912A0160237123822393230E9486
:101040006D071F910F9108950F931F930091270132
:10105000109128012091290130912A0160277127E0
:10106000822793270E946D071F910F91089508957D
:10107000262F277091E001C0990F2A95EAF723E007
:10108000769567952A95E1F725E0269FF001279F41
:10109000F00D1124E40FF51F50E040E0682F70E0E0
:1010A0008191DF0111979B01042E02C0369527958F
:1010B0000A94E2F7217021952827292328272C93C9
:1010C0004F5F5F4F4530510559F70895A82FA7701E
:1010D00023E0969587952A95E1F725E0289FF00172
:1010E000299FF00D1124E60FF71F50E040E080E04B
:1010F000219130E00A2E02C0369527950A94E2F736
:1011000021703327042E01C0220F0A94EAF7822BA4
:101110004F5F5F4F4530510559F70895262F9111C4
:1011200009C0823038F4682F70E042E251E0822F2B
:101130000E943808089591110AC0823030F462E2AA
:1011400071E090E00E946608982F892F089590E042
:10115000FCCFB0E0A0E0EFEAF8E00C94381F8C017F
:10116000C0902701D0902801E0902901F0902A0139
:1011700080912B0190912C01A0912D01B0912E0115
:10118000C82AD92AEA2AFB2ACFE1D0E0BC2ED7010F
:10119000C6010C2E04C0B695A795979587950A941D
:1011A000D2F780FD09C0219788F7B12C8B2DCDB7E0
:1011B000DEB7E9E00C94541FB8018C2F0E94070F92
:1011C000019789F3F3CFCF93DF93EC010E94A90835
:1011D000BE010E94070FDF91CF9108951F93CF9317
:1011E000DF93EB0190912101992339F0CB010E940B
:1011F000E308DF91CF911F910895882369F0CB0117
:101200000E94A908182F682FCE010E948E08BE01E7
:10121000812F0E94070FEDCFCB010E949B08182F52
:10122000F6CF1F93CF93DF93C0912F0116E08091EB
:1012300030018C1304C0DF91CF911F910895D0E04D
:101240001C9FF0011D9FF00D1124EF5CFE4F4081AB
:10125000518162817381848195810E940F0721965B
:10126000C770E5CF409161015091620160916301C7
:101270007091640180916501909166010E940F0751
:1012800008951F93CF93DF9380916601807F09F0CB
:1012900049C080916301882309F444C080912F01E3
:1012A000C09130016091610170916201A09164016F
:1012B000B0916501D62FD72316E0C81799F190E0B9
:1012C000109711F0DF3F19F401968770F6CF189F41
:1012D0009001199F300D1124F901EF5CFE4F4181FF
:1012E0004713F2CF40814613EFCF42814111ECCF3B
:1012F000438154814A1B5B0B483C510528F7809180
:1013000066018F70806180936601F901EA5CFE4F8F
:1013100080818F708061808381E691E00E94A906C0
:101320000E941109DF91CF911F910895A1E1B0E0D2
:10133000ECE9F9E00C94371F8C0185E0F801DE013F
:101340001D9601900D928A95E1F7F801E28081E601
:10135000C82E81E0D82E60916401709165016115FD
:10136000710509F44EC19091610120916201892FAC
:1013700082238F3F09F445C140815181A380B4800D
:10138000F0906301F501E61BF70BFF2009F4EAC0BA
:1013900080916601382F307FE83CF10508F0A3C04A
:1013A00031116DC0FE2C251316C0941314C0E1102A
:1013B00012C08F708061809366010E943209C6015D
:1013C0000E94A90680916601F80185838F2D6196A0
:1013D000EAE00C94531FA114B10429F0842F852353
:1013E0008F3F09F027C180E0F82FF170DF2E80FFDA
:1013F0003CC080912F012091300136E0821315C04E
:101400004D875E878D859E850E94E308292F229552
:101410002F702230F0F0243018F59F70F1F0F801B1
:101420009581907FD1F4D12C1EC090E0389FF001BF
:10143000399FF00D1124EF5CFE4F6181651306C0EA
:101440006081641303C06281E6120FC00196877049
:10145000D5CF9F7011F0882331F3805E883018F368
:10146000C8010E94A906FD2CB1CFEE2009F4AECF31
:1014700080916601816080936601F12CA7CF2513CE
:1014800006C0941304C0F801EE2009F487C0C80117
:101490000E94FD06882319F1EE2009F18091660172
:1014A000803270F0209161013091620138872F8382
:1014B0001986BB86AA868C87CE0107960E94A9064C
:1014C00086E0F801A1E6B1E001900D928A95E1F77E
:1014D0000E9441090E943209FF24F39477CFC8018A
:1014E0000E94A906F9CF311113C07A2DB98AA88AB2
:1014F0006E2D89890E94050781E691E00E94A90668
:1015000086E0F60111928A95E9F70E943209B5CF7B
:1015100025130FC094130DC0E1100BC0F801858393
:10152000C8010E94A90686E0F60111928A95E9F7A2
:101530004DCFC8010E94FD06882389F2EE2079F282
:1015400080916601803208F4BBCF20916101309117
:1015500062013A8329831B82BD82AC828E83CE01D5
:101560000196ACCFE83CF10508F03EC0FE2CEE2021
:1015700009F4B5CF25132AC0941328C080916601C1
:1015800080FD1BC0982F907FC1F0F8018583903FAC
:1015900031F0982F907F905F8F70892B8583C801E1
:1015A0000E94A90686E0F801A1E6B1E001900D9243
:1015B0008A95E1F70E94320909CF86E0F801A1E699
:1015C000B1E001900D928A95E1F700CFC8010E9429
:1015D000FD06811175CF809166018160809366015F
:1015E000C8010E94A906F2CE7A2DB98AA88A6E2D6A
:1015F00089890E94050786E0F60111928A95E9F72C
:10160000D9CFEE2009F46BCFC8010E94FD06F82E59
:10161000882309F464CF86E0F801A1E6B1E00190E7
:101620000D928A95E1F781E691E00E941C040E94E8
:101630004109C0CF81E08E25D7CEACE0B0E0E3E237
:10164000FBE00C943E1F4F83588769877A878B870E
:101650009C87CE0107960E949609882369F08A85A7
:101660009B85892B39F04F815885842F85238F3FA7
:1016700009F06BC016E05FC086E0FE013796DE0120
:10168000119601900D928A95E1F78A859B85892BA9
:1016900089F38F81988589238F3F61F320913001F1
:1016A00030E0C90101968770992740912F014817B2
:1016B000190671F40E94DD061092300110922F017C
:1016C00086E0E1E6F1E0DF011D928A95E9F7D2CFED
:1016D00096E0929FD001939FB00D1124AF5CBE4F56
:1016E000FE01319601900D929A95E1F780933001B9
:1016F0000E941109BFCF819FC00111248F5C9E4FB2
:101700000E9496098823E9F0E0912F011E9FF001C5
:101710001124EF5CFE4F408151816281738184818D
:1017200095810E940F0780912F0190E001968770AC
:10173000992780932F0180912F0190913001891377
:10174000DACF2C96E3E00C945A1F69857A858B8555
:101750009C850E940F078ECF682F80910001909189
:1017600001010E9450170895682F80910001909107
:1017700001010E945E17089580910001909101017E
:101780000E946C17089580918701859585958595B0
:1017900008958091870187700895909187019770CF
:1017A00081E009F480E008958091AA010895909164
:1017B000AA01892B8093AA01089580959091AA018E
:1017C00098239093AA0108951092AA0108959091E8
:1017D000A901892B8093A901089580959091A90171
:1017E00098239093A90108951092A90108958091DA
:1017F0008801089508950E94FA0B089590910E02B1
:1018000092FF08C090918801981721F08093880179
:101810000E94FB0B089580918801882329F0109283
:10182000880180E00E94FB0B0895CF93DF93E09145
:101830000001F09101018091AA018083E0910001F3
:10184000F091010180819091A901892B8083909171
:101850008801992381F0E0910001F09101018081DC
:10186000892B808380910001909101010E94BC1618
:1018700081110E940B0CC0910001D091010140E246
:1018800050E067E671E0CE010E94661F892B59F097
:1018900080E2FE01A7E6B1E001900D928A95E1F7A2
:1018A000CE010E947616DF91CF91089508950E948F
:1018B000560C089590910E0292FF11C098E0899FF6
:1018C00090011124622B609387010E9496078091FA
:1018D00087018595859585950E94570C08950E94EE
:1018E000960708951092870180E00E94570C089592
:1018F000909187018095892380938701282F2770F5
:1019000091F4282F082E000C330B9217130659F070
:1019100090910E0292FF07C08595859585950E944E
:10192000B8070E94720C089590910E0292FB222734
:1019300020F9281769F080FB92F990930E028091AC
:101940000D0290910E020E94E50C82E00E94780C3C
:10195000089580910E0282FB882780F991E0892703
:101960000E94940C089581E00E94940C089580E0F8
:101970000E94940C08956FEF7FEF90E080E00E944A
:101980009F1F089590E080E00E947B1F21E0883E29
:101990009E4F09F020E0822F089582E090E00E949F
:1019A000731F089583E090E00E94731F0895CF9302
:1019B00084E090E00E94731FC82F82E290E00E94B2
:1019C000731F982F8C2FCF910895CF93C92F682F15
:1019D00084E090E00E94811F6C2F82E290E00E94E0
:1019E000811FCF910895AB01BC018FE090E00E9470
:1019F000931F0895AB01BC0183E190E00E94931F07
:101A0000089560E070E0CB010E94FA0C089560E058
:101A100070E0CB010E94F30C0E94010D089568EE66
:101A20007EEF90E080E00E949F1F60E082E090E007
:101A30000E94811F60E083E090E00E94811F10926D
:101A40002B0110922C0110922D0110922E0160E0BA
:101A500084E090E00E94811F64E082E290E00E94B6
:101A6000811F60E085E090E00E94811F60E086E0D9
:101A700090E00E94811F6FEF87E090E00E94811F3D
:101A800040E050E0BA0188E090E00E94931F60E0DF
:101A90008DE090E00E94811F40E050E0BA0188E1B3
:101AA00090E00E94931F60E087E190E00E94811F18
:101AB00040E050E0BA018CE190E00E94931F70E09A
:101AC00060E080E290E00E949F1F40E050E0BA0199
:101AD00088E190E00E94931F0E94070D08950E94E4
:101AE0000F0D0895682F8EE090E00E94811F0895E9
:101AF0000E942A186093B0017093B1018093B201E3
:101B00009093B3016093AC017093AD018093AE01EB
:101B10009093AF010895089508950E948C0D089543
:101B200008950E94900D089586EE9FE00E945F1632
:101B30000E948B0D0E948D0D089581E008950E94F2
:101B40009D0D0895089508950E94A20D0E94A30D71
:101B500008950E9405100E94C90308950E94151857
:101B60000E948E100E94A90D80E00E9450110E94D8
:101B7000910D0895AAE0B0E0E0ECFDE00C943B1F6D
:101B80000E949A10E82E81110E94780D80E00E9438
:101B90003210182F8091AB01F82EF1268117A1F198
:101BA0008091B40181FD0E9438100F2D0170F0FC6E
:101BB00029C0F1FE29C0FF24F39402E00E949F0D8A
:101BC000882399F0FE821F82102381E009F480E0CF
:101BD00088870E941E188160782F9A8789874E8196
:101BE0005F8168858A850E94E7038091AB01802729
:101BF0008093AB0181E0E11001C080E02A96E6E02D
:101C00000C94571FF12CDACF8FEF89838A831B82C4
:101C10000E941E188160782F9D838C8349815A8190
:101C20006B818D810E94E703E5CFCF930E94BA0DAF
:101C3000C82F0E942913C1110E94EF110E94DC03DA
:101C4000CF910895CF93DF930E940C0FEC01811583
:101C500023E5920790F5811532E5930708F096C0C9
:101C600081159042C8F4C11581E0D80788F4C53ABF
:101C7000D10548F4C430D10558F4C130D10541F044
:101C8000D0E0C0E005C0CE01805E91090897C0F7A2
:101C9000CE01DF91CF910895C11591E5D90708F0E4
:101CA00070C0C11520E5D20708F04EC0C11530E460
:101CB000D30730F3DF70D06AEBCF811546E5940788
:101CC000F0F4C11585E5D80708F075C0C11594E595
:101CD000D90708F06BC0CE018370992721E030E06E
:101CE00002C0220F331F8A95E2F7C695C69590E28F
:101CF000C99FE0011124C22BD32BDA68C9CF81150B
:101D00002AE5920778F4811539E5930708F05EC05B
:101D1000811548E5940708F4B3CFD82FCC27C06FBE
:101D2000D06AB6CF90568115904208F0A9CF8D2F7A
:101D30008F710E94A30F90E0982F882788279F71AA
:101D40009C012C2BE90140C0CE01E4E096958795DB
:101D5000EA95E1F783702C2F26952695237040E2B3
:101D6000249F90011124382B8C2F8370C1E0D0E088
:101D700002C0CC0FDD1F8A95E2F7C22BD32BDC68A3
:101D800087CFDC2FCC27C16FD06A82CF8370992791
:101D900021E030E002C0220F331F8A95E2F7C6959A
:101DA000C69580E2C89FE0011124E7CFDC2FCC2745
:101DB000C46FD06A6DCF8C2F0E94A30FC82FD0E0C4
:101DC000DC2FCC27CC27DF71D06262CF8F700E94CE
:101DD000A30F34E0D695C7953A95E1F7CF709C2FC5
:101DE000EC01D06955CF71110FC0623068F4E82F53
:101DF000F0E0EE0FFF1FE60FF11DEE0FFF1FE7549F
:101E0000FE4F85919491089580E090E008950E949E
:101E1000F30E0E94220E089582389105B1F1B0F4BC
:101E20008133910509F475C048F48932910509F4AC
:101E300069C08A32910509F473C00895853391050C
:101E400009F459C08933910501F10895833E910544
:101E5000A9F138F4803E9105F9F0823E910549F1EF
:101E60000895863E9105A9F1873E9105C9F1843E0A
:101E7000910519F520910E0221FF1FC080910D02DE
:101E800084FD14C087EE90E0089520910D02237028
:101E9000A1F080EE90E0089520910D0220FD47C052
:101EA00030910E0230FF09C024FF44C090E080E072
:101EB00004C020910D0222FDF7CF089520910D025C
:101EC00022FD3BC030910E0230FDE3CF24FFF5CF61
:101ED000EDCF20910D0223FFF0CF24FDE7CFD2CF2D
:101EE00020910D0223FD2CC030910E0231FFEECF68
:101EF00084EE90E0089520910D0225FFDECF89E267
:101F000090E0089520910D0225FFD7CF85E390E062
:101F1000089520910D0226FFD0CF8AE290E0089527
:101F200020910D0226FFC9CF81E390E0089589E357
:101F300090E0089583EE90E0089582EE90E0089599
:101F400086EE90E0089590910D0292FF06C0282F32
:101F500028712830F9F4877F846093FF06C0282F0A
:101F600028712831F1F4877E846120910E0220FFD0
:101F700006C0382F38713830D9F4877F816021FF4F
:101F800006C0282F28712831D1F4877E816194FD05
:101F9000877E0895282F24712430F9F68B7F88607E
:101FA000DCCF282F2471243101F78B7E8861DDCFAF
:101FB000382F3171313019F78E7F8860E0CF282FAC
:101FC0002171213121F78E7E8861E1CF80E0089573
:101FD0000E94BB0C08950E949A102FEF86E791E0B3
:101FE000215080409040E1F700C000000E949A100C
:101FF00080E00E94321080FF04C00E94E80F0E941F
:10200000691808950E94EB0F08950E94C20C811177
:1020100002C00E946F0D0E94CD0C8093B4010E94FB
:10202000D70C90930E0280930D020E9402100E9422
:10203000D20C682F70E090E080E00E942B07609146
:102040002701709128018091290190912A010E9415
:102050006A07089508950E942A10089508950E941D
:102060002E100895E82FF0E0E05FFD4F8081089585
:10207000089580EA8A95F1F7089500C008950E94B6
:1020800039100895F894E82FE295EF70F0E031A14F
:10209000282F2F7081E090E001C0880F2A95EAF781
:1020A000982F9095932391A392A1892B82A3789442
:1020B000089581E30E94421082E30E94421083E36C
:1020C0000E94421008950F931F93CF93DF938C01CA
:1020D000D62FF894219A299878940E943D10C3B184
:1020E000C2FB882780F9C1E0C8271B9915C082E090
:1020F000C82B81E30E94421061E0C11101C060E081
:102100008D2F0E943F10F801ED0FF11DC083DF916C
:10211000CF911F910F91089580E0EACF0E9459104E
:102120001092100210920F0281E00E94BF100E94D4
:1021300078020895A1E0B0E0E0EAF0E10C943E1FDF
:10214000198260E0CE0101960E94631090910F0207
:10215000898111E0981301C010E0981380930F0259
:10216000212F41E060E172E08FE092E00E94C01018
:102170000E947B02812F2196E3E00C945A1F089560
:10218000FF920F931F93CF93DF93F82E092F162FF3
:10219000D72FC42F222349F081E08093B7010E94FA
:1021A0001E189093B6018093B5018091B7018823E2
:1021B000A1F08091B5019091B6010E943618059763
:1021C00060F0EF2DF02FA12FBD2FCE0FDF2FD11DEF
:1021D000EC17FD0739F41092B701CDB7DEB7E5E093
:1021E0000C94581F81918D93F3CF0E94F0190E9497
:1021F000AE0D0E94FD1908950E94021A0E94150E4C
:102200000E941C1A08950E94B7170E94D6190E94B6
:10221000940D0E94F5100E94FC100E94A40DFBCFAB
:10222000B0E0A0E0E6E1F1E10C94391F6C017B0124
:1022300064E670E088E70E947615EC0197FD12C015
:1022400010E000E0F601E00FF11F849164E670E019
:102250000E94E415EC01892B29F40F5F1F4F0E1526
:102260001F0581F70E945B16CE01CDB7DEB7E8E00F
:102270000C94551F0895E1E1F2E080E092E0DF0167
:102280009C011D9221503040E1F7F0931604E09339
:1022900015048FEF9FEF9093DE018093DD01089589
:1022A0000E943A110E9421028093D90180FD0FC043
:1022B00080E88093D8010E9470156DE070E084E89A
:1022C00092E00E941011892B21F080E0089580E2B5
:1022D000F0CF8091D90163E070E081FD26C081E8F4
:1022E00092E00E941011892B81F76DE070E081E788
:1022F00092E00E941011892B41F70E942A18605A1F
:1023000075418F4F9F4F6093110470931204809317
:102310001304909314040E943B1181E08093DC012C
:102320008093DB011092DA0108958EE792E0D9CF15
:102330002091D80136E0839FC0011124629F800D57
:10234000911D1124811522E0920714F090E080E0A5
:102350008F5E9D4F90931604809315040895CF933C
:10236000DF93209115043091160421513240A901C8
:10237000460F571F4130524020F060E072E0621B70
:10238000730B4091DD015091DE01FC01C901620F28
:10239000731FC1E0D0E08617970738F05093DE0135
:1023A0004093DD01DF91CF9108952491DC01AF5E70
:1023B000BD4F3C91321781F02C939C01A5E03695DE
:1023C0002795AA95E1F7DE0102C0AA0FBB1F2A9547
:1023D000E2F79D014A2B532B01963196DCCF809179
:1023E000DC01811103C08091DB0108950E942A184D
:1023F000605A75418F4F9F4F609311047093120480
:1024000080931304909314048091DB018111EBCF2E
:1024100062E070E08FE692E00E941011892B19F7BC
:1024200081E08093DB01DFCF2F923F925F926F922A
:102430007F928F929F92AF92BF92CF92DF92EF9254
:10244000FF920F931F93CF93DF938091DC0188233A
:1024500069F02091DD013091DE012115310531F067
:102460008091DA0161E070E0882399F0DF91CF91EB
:102470001F910F91FF90EF90DF90CF90BF90AF90A2
:102480009F908F907F906F905F903F902F900895D6
:102490008F5F082F10E01B01082E02C0220C331C96
:1024A0000A94E2F7A90142215321452B89F3909127
:1024B000D90190FD44C08295880F807680930401F5
:1024C0009801369527953695279520930701815ECB
:1024D000809305011092080124E630E047E050E0C7
:1024E00062E071E088E70E941316892B09F0BECFE5
:1024F000A80125E0440F551F2A95E1F78091D901E5
:1025000080FD2BC04F5E5D4F04E610E020E230E01E
:1025100060E488E70E943416892B09F0A7CF0E9457
:10252000EF11E101C095D0958091DD019091DE0120
:10253000C823D923D093DE01C093DD0197CF880F44
:10254000880F880F8093040110920701895F8093A0
:10255000050183E080930801BFCFE8EBF1E080E262
:10256000DF011D928A95E9F7AAE1B1E006E111E0E9
:102570008EE1C82E81E0D82E97E0592E77247394EF
:102580008D91E80129918E01240F352F311D2F5E89
:102590003D4FE82FF0E0E854FE4F90E080E0652CDE
:1025A000681A872C082E01C0880C0A94EAF7790172
:1025B000A12CE701B9907E01B820662D6A196770D9
:1025C000962E062E000C770BDB2D01C0DD0F9A94A2
:1025D000EAF77195619571096770772701C0B69424
:1025E0006A95EAF7BD2A6081962E9B289082A39473
:1025F00068E0A612DECF019631968830910579F613
:10260000CA16DB0609F0BCCF04E610E020E230E099
:1026100048EB51E07DCF8091DB019091DC0191117D
:1026200003C091E089270895882369F062E070E093
:102630008DE692E00E941011892B19F08091DB0148
:1026400008951092DB018091DB01EBCF0E94230201
:1026500008950F931F938091DC01882309F160E0B6
:1026600080E00E9498110E9426130E94141280910B
:10267000DB018823A9F00E942A180091110410910F
:1026800012042091130430911404601B710B820B0F
:10269000930B6F3F7F4F8F4F9F4710F40E940B1398
:1026A0001F910F910895CF93DF93EC01FB0182817D
:1026B000882309F433C1C430FDE5DF07C0F5CB3F03
:1026C0009CE5D90730F49E0122503C452431310568
:1026D000B0F50E94D70C90930E0280930D02C13189
:1026E0008CE5D80709F4EEC008F069C0C930ECE504
:1026F000DE0709F4D5C0C8F5C5308CE5D80709F464
:10270000C7C000F5C330ECE5DE0709F4B9C008F036
:10271000BBC0C230DC4509F4ADC080910D02909180
:102720000E020E94E50C0E94DD0680E008C0C23661
:10273000EDE5DE0771F2C63AFDE5DF0751F2DF9104
:10274000CF91089580910D028062C7309CE5D90732
:1027500009F493C080910D028061C830DC4508F413
:102760008CC080910D02806488C080910D028B7FA7
:10277000CD30FCE5DF0709F480C098F480910D02AC
:102780008E7FCB309CE5D90709F477C080910D028C
:102790008C60CC30DC4508F470C080910D028D7FD8
:1027A0006CC080910D028F7ECF30FCE5DF0709F40D
:1027B00064C008F47BC080910D028F7D5EC0CE3F67
:1027C0009CE5D90709F47AC050F5C531FCE5DF076F
:1027D00009F486C098F480910D02837FC3319CE593
:1027E000D90709F44AC008F471C00E94DD0690912F
:1027F0000D02892F97FB87F980583FC0CC3FFCE53D
:10280000DF0709F449C008F055C080910E028160CD
:10281000CB3FDC4509F081CF80930E027ECFC230E2
:10282000EDE5DE0709F468C0A8F4C1158DE5D80709
:1028300009F452C080910E028360C130DD4560F31F
:1028400080910E02982F909591708E7F892B90FB2E
:1028500081F9E2CFC236EDE5DE0709F451C0C63A90
:10286000FDE5DF0709F453C0C330DD4509F055CF5E
:1028700080E043C080910D02816080930D024DCFB6
:1028800080910D028260F9CF80910D028460F5CFB6
:1028900080910D028860F1CF80910E028260BCCFE2
:1028A0000E94DD0680910D028068E7CF80910D02C5
:1028B000877FE3CF80910E028E7FAECF80910E0294
:1028C0008D7FAACF80910D028F7BD7CF0E94DD062E
:1028D00080910D028F77D1CF80910E028C7F9CCF9B
:1028E00080910D0282FB992790F921E0922790FBBD
:1028F00082F990FB83F9C1CF81E00E94720D0DCF68
:1029000090910D02892F8F7E94FF8061B6CF9091B8
:102910000D02892F8E7F90FF8160AFCF81E00FCFB6
:10292000CF93DF93EB0186319C4511F50E94D40BC8
:102930009A81992399F08A7A91E009F490E0909332
:10294000DF01811109C089E20E94AC0B0E94150CC5
:1029500080E0DF91CF91089585E3F6CF8091DF018C
:10296000811104C089E20E94B40BF0CF85E3FBCF54
:1029700081E0EFCF0F931F93CF93DF93C42FD22F1C
:10298000FC0182818823C9F04093E2010E941E1855
:102990009093E1018093E00180E28C0F883040F455
:1029A000C77081E001C0880FCA95EAF70E949704BA
:1029B000DF91CF911F910F9108951091E2011413AF
:1029C00032C08091E0019091E1010E943618883C6C
:1029D000910548F5C0E2CD0F1D17B9F080E2810FD7
:1029E000883040F4177081E001C0880F1A95EAF72B
:1029F0000E949E04C83048F481E09D2F977001C06A
:102A0000880F9A95EAF70E949704802F0E948E04FF
:102A1000C83070F6D77081E001C0880FDA95EAF708
:102A20000E949E04C5CF80E28C0F883008F6C770E4
:102A300081E001C0880FCA95EAF7F2CF0F939C019D
:102A4000CB01243F4CE5340759F1A8F4293DFCE5BE
:102A50003F0701F12A3D4CE53407D1F1283D3C45C3
:102A600091F406E221EE41EE68ED7CE50E94BA1495
:102A700080E00F910895263FFCE53F07E9F0B0F0B4
:102A8000273F3C45F9F0FC018281882339F11092FF
:102A9000E201EFCF07E225EE45EE69ED7CE5E6CFFA
:102AA00006E221EE40EE64EF7CE5E0CF07E225EEA2
:102AB00044EE65EF7CE5DACF06E221EE42EE66EF0A
:102AC0007CE5D4CF07E225EE46EE67EF7CE5CECF7E
:102AD00008E221E045EE6AED7CE5C8CF81E0C9CF90
:102AE0001092B9008CE08093B8000895B0E0A0E0A7
:102AF000ECE7F5E10C94361FB82EEB010E941E188E
:102B00006C01EE24E394F12CC431D10560F025E092
:102B1000E22EF12CCF3FDC0731F0CE0164E170E012
:102B20000E94151F7B0184EAA82E94E8992E10922A
:102B3000BC00A092BC000E941E188C018091BC00B9
:102B400087FF0DC08091B900887F883001F18091A6
:102B5000B900887F8031D9F00FEF1FEF09C00E94C4
:102B60001E18801B910B8E159F0540F30EEF1FEF73
:102B7000CF3FDC07E1F2C6010E9436188C179D0793
:102B8000B0F2C801CDB7DEB7EBE00C94521FB092A3
:102B9000BB009092BC000E941E188C018091BC006A
:102BA00087FF0AC08091B900887F883111F0803496
:102BB00099F610E000E0E5CF0E941E18801B910BF3
:102BC0008E159F0558F3D2CF0F931F93CF93DF93AA
:102BD000EB018093BB0084E88093BC000E941E1828
:102BE0008C018091BC0087FF11C02091B900287F23
:102BF00081E090E0283211F490E080E09195819599
:102C00009109DF91CF911F910F910895CF3FDC077C
:102C100041F30E941E18801B910B8C179D0708F32F
:102C20008EEF9FEFEECFB0E0A0E0E9E1F6E10C948B
:102C3000391F6B018A017901B9010E947615E601FD
:102C40000C0D1D1DC017D10711F097FF08C024E916
:102C50002093BC00CDB7DEB7E8E00C94551FB70158
:102C600089910E94E415EECFB0E0A0E0EAE3F6E13E
:102C70000C94391FC62F6A017901B8010E9476159C
:102C800097FD0CC0B8018C2F0E94E415E601EC0CF6
:102C9000FD1CCE15DF0511F097FF08C024E9209335
:102CA000BC00CDB7DEB7E8E00C94551FB8018991A0
:102CB0000E94E415EECF84E98093BC0008959093C0
:102CC0001F0180931E0108959093E8018093E7010E
:102CD0000895E091E701F091E801309729F0019023
:102CE000F081E02D0995089580E00895E091E701D5
:102CF000F091E801309799F020911501222359F0C5
:102D000020910D0227FF07C0DC012C9111962C9316
:102D1000119726E02C930280F381E02D0995089508
:102D20002091E5013091E6012817390771F0909361
:102D3000E6018093E501E091E701F091E801309729
:102D400021F00680F781E02D099508952091E30197
:102D50003091E4012817390771F09093E4018093D2
:102D6000E301E091E701F091E801309721F0008460
:102D7000F185E02D09950895FC01329680911501A9
:102D8000882321F080910D029EE187FF96E080E08C
:102D9000915008F4089521912223D1F38F5FF8CF49
:102DA000662301F1209115012223F1F020910D02FB
:102DB00027FF1AC0462F4695469546954E3190F40A
:102DC000677021E030E002C0220F331F6A95E2F7FE
:102DD000840F911DFC01828190E02823392381E03A
:102DE000232B69F480E00895FC0132960896219126
:102DF000261721F0E817F907D1F7F4CF81E00895FD
:102E00009C01FC0132969FEF80E04191461751F002
:102E10009F3F19F4411101C0982F8F5F8630A9F7A9
:102E20009F3F09F40895290F311D97FD3A95F90147
:102E300062830895FC01329608962191261303C0FF
:102E4000DF0111971C92E817F907B9F70895E62FEB
:102E5000E695E695E695EE3168F4E80FF92FF11D59
:102E6000677021E030E001C0220F6A95EAF78281A5
:102E7000822B82830895E62FE695E695E695EE315E
:102E800070F4E80FF92FF11D677021E030E001C008
:102E9000220F6A95EAF720958281282322830895DC
:102EA00020911501222339F020910D0227FF03C044
:102EB0000E94271708950E94001708952091150178
:102EC000222339F020910D0227FF03C00E943B17F7
:102ED00008950E941A170895FC01329680911501F9
:102EE000882351F080910D0287FF06C08EE1DF013B
:102EF0001D928A95E9F7089586E0F9CF08950E941A
:102F00007E170895811106C081E08093E9010E9437
:102F10007F17089582E0F9CF83E08093E9010E9452
:102F20007F1708950E948217089581E08093E90138
:102F30000E947F1708950E94951708950895089597
:102F40000E949F170895089508950E949E1708955E
:102F50000E94A3170E949A100E94A41780E00E946A
:102F6000321091E0811101C090E0892F089585B75A
:102F7000806885BF85B7806885BF08951F921FB69A
:102F80001F9211248F939F93AF93BF938091EA0177
:102F9000811113C08091170490911804A091190415
:102FA000B0911A044196A11DB11D8093170490930E
:102FB0001804A0931904B0931A04BF91AF919F9184
:102FC0008F911F901FBE1F90189580911F04843011
:102FD00031F10E94EB021092EA0188E190E020E4D6
:102FE0000FB6F894A895809360000FBE2093600000
:102FF00083B7817F846083BF83B7816083BF789408
:10300000889583B78E7F83BF0FB6F894A89580917B
:103010006000886180936000109260000FBE089588
:103020000E94DD060E94F202089582E084BD93E0D2
:1030300095BD9AEF97BD80936E0008952FB7F894D1
:103040008091170490911804A0911904B0911A046A
:103050002FBF08952FB7F89460911704709118044A
:103060008091190490911A042FBF08959C014FB7C5
:10307000F8948091170490911804A0911904B091CC
:103080001A044FBF821B930B089578941F921FB6AA
:103090001F9211248F939F93AF93BF938091170436
:1030A00090911804A0911904B0911A040196A11DE1
:1030B000B11D8093170490931804A0931904B09342
:1030C0001A04BF91AF919F918F911F901FBE1F90C7
:1030D000189581E08093E00080E28093D800109200
:1030E000C9008FE19EE40197F1F700C0000087E07E
:1030F00090EBDC018093280490932904A0932A0488
:10310000B0932B0488E19CE00FB6F894A8958093C7
:1031100060000FBE90936000FFCF88E19CE00FB687
:10312000F894A895809360000FBE90936000FFCF45
:1031300080910B02089508950895CF93DF93EC01D9
:10314000809115018823B1F180910D0287FF32C073
:1031500060E282E08093E9008FEF9091E800815077
:1031600095FD06C095ED9A95F1F700008111F5CF18
:103170008091E80085FF1BC08091150170E050E050
:1031800040E0811104C050E040E068E070E0CE0112
:103190000E948E1A8091E8008E778093E80080E28A
:1031A000FE01ABEEB1E001900D928A95E1F7DF915F
:1031B000CF91089568E081E0CDCF08950895809182
:1031C0001E04811109C00E941E1C0E947B1C80915C
:1031D000E20084608093E200089510921E04089536
:1031E0000E949517089560911B0481E0611101C050
:1031F00080E00E948C17089590911F0481E0943024
:1032000009F080E060911B040E949217089542E04B
:1032100061EC81E00E949A1B42E261EC82E00E9434
:103220009A1B90911F0481E0943009F080E0609136
:103230001B040E948217089580912104833009F4B1
:1032400061C030F48130D1F1823009F49EC008951C
:103250008A3009F48AC08B3009F46FC0893009F0D4
:1032600050C080912004813209F04BC08091240429
:1032700090912504029708F044C08091E800877F70
:103280008093E8008091E80082FF37C09091F300BE
:103290008091F200029731F48091F100813011F0B9
:1032A000863021F48091F10080930B028091E80038
:1032B0008B778093E8000E94CE1B23C0809120046E
:1032C000813AF9F48091E800877F8093E80080914B
:1032D000240490912504892B61F460E28BEE91E047
:1032E00070E00E94DD1A8091E8008B778093E800FF
:1032F000089560E090E080E0F3CF80911F04811199
:10330000C1CF089580912004813AD9F78091240497
:1033100090912504892BA9F78091E800877F8093FD
:10332000E8008091E80080FFFCCF80911501809338
:10333000F1008091E8008E77BCCF8091200481322B
:1033400001F78091240490912504892BD1F6809176
:10335000E800877F8093E8000E94CE1B80912204C2
:10336000809315010E94DD0608958091200481322A
:1033700041F68091E800877F8093E8000E94CE1B91
:103380008091230480930C02089580912004813A57
:1033900009F0B7CF8091E800877F8093E8008091A3
:1033A000E80080FFFCCF80910C02C1CF84B7877FFB
:1033B00084BF0FB6F894A8958091600088618093CF
:1033C0006000109260000FBE80E890E00FB6F894A5
:1033D00080936100909361000FBE0E949B17089537
:1033E0000E941E1C0E947B1CE2EEF0E08081846043
:1033F000808378940E94FA1E089589E091E00E94EB
:103400006416089580911F04853031F480911F0463
:10341000853019F00E94101808950E94E5178091D8
:103420001D04882399F30E94A817882379F30E942A
:10343000781A0E94DD06EACF08950E94201A0895A6
:10344000292F33272330310519F168F42130310554
:1034500009F444C02230310509F445C090E080E011
:1034600030E020E025C02132310549F1223231051A
:10347000A9F780E490E02BE533E061157105C1F018
:103480008BE390E020E233E06130710589F0E6CF14
:1034900099278130910581F0009729F00297F1F684
:1034A000E1E9F2E002C0EFECF2E0849190E09F01EC
:1034B000FA01318320830895EFE9F2E0F6CF89E045
:1034C00090E025EE32E06115710591F389E090E01E
:1034D0002EEF32E06130710559F3C0CF82E190E008
:1034E0002EE033E0E5CF8BE390E023ED32E0E0CF58
:1034F00080E189BD82E189BD09B400FEFDCF8091E4
:10350000D8008F7D8093D8008091E0008260809306
:10351000E0008091E00081FDFCCF0895AF92BF9262
:10352000CF92DF92FF920F931F93CF93DF936C01A3
:10353000EB018A010E94ED1BF82E811123C00115B9
:10354000110539F0F80180819181C81BD90BC80E93
:10355000D91EB12CA12C2097A9F08091E80085FDFF
:1035600022C08091E8008E778093E8000115110554
:10357000A1F0F80180819181A80EB91EB182A082CC
:1035800085E0F82E8F2DDF91CF911F910F91FF9045
:10359000DF90CF90BF90AF9008950E94ED1B8823DD
:1035A000D1F2F82EEFCFF60181916F018093F100F7
:1035B0002197FFEFAF1ABF0ACECFFC0180912604FE
:1035C0009091270486179707A0F06115710529F4DB
:1035D0009091E8009E779093E80090E06115710566
:1035E00051F4911108C08091E80082FF34C080E05E
:1035F0000895BC01F2CF80911F048823C1F185306A
:10360000C1F18091E80083FD30C08091E80082FD27
:10361000EACF8091E80080FFE1CF8091F300209114
:10362000F200382F6115710519F02830310558F076
:1036300091E02830310509F090E02091E8002E77E4
:103640002093E800CBCF81918093F1006150710904
:103650002F5F3F4FE7CF80911F04882341F08530D3
:1036600041F08091E80083FFBECF81E0089582E0C1
:10367000089583E00895FC01809126049091270429
:1036800086179707A0F06115710529F48091E8006D
:103690008E778093E80090E06115710551F49111E7
:1036A00008C08091E80082FF35C080E00895BC0129
:1036B000F2CF80911F048823C9F18530C9F1809130
:1036C000E80083FD31C08091E80082FDEACF80915F
:1036D000E80080FFE1CF8091F3002091F200382FC5
:1036E0006115710519F02830310558F091E0283046
:1036F000310509F090E08091E8008E778093E80032
:10370000CBCF84918093F1003196615071092F5F86
:103710003F4FE6CF80911F04882341F0853041F070
:103720008091E80083FFBDCF81E0089582E0089595
:1037300083E00895982F973028F08F708093E900E8
:1037400081E008959093E900242F762F50E0981798
:1037500031F07091EC002091ED005091F00021FDCE
:1037600002C09F5FE8CF3091EB003E7F3093EB00CB
:103770003091ED003D7F3093ED003091EB003160F2
:103780003093EB007093EC002093ED005093F00029
:103790002091EE0027FDE5CF80E008958091200480
:1037A00087FF13C08091E80082FF06C08091E80087
:1037B0008B778093E80004C080911F048111F2CFC1
:1037C000089580911F048823D9F38091E80080FF39
:1037D000F8CF8091E8008E77ECCF2091E400309113
:1037E000E50095E6A9012091EC00822F817020FF71
:1037F00006C08091E80080FF06C080E00895209117
:10380000E80022FD1AC080911F04882389F08530CA
:1038100089F08091EB0085FD0FC02091E40030918C
:10382000E50042175307F9F29150E1F684E008955C
:1038300082E0089583E0089581E008950E948D1C40
:103840000E94951CE0EEF0E0808181608083E8EDCD
:10385000F0E080818F77808319BCA7EDB0E08C9178
:103860008E7F8C9380818F7E808310921E040895BA
:103870000F931F93CF93DF930E948D1C0E94951C82
:10388000C8EDD0E088818F778883888180688883BD
:1038900088818F7D888319BC10921F0410921B04AD
:1038A00010921D0410921C0400EE10E0F8018081BB
:1038B0008B7F808388818160888342E060E080E044
:1038C0000E949A1BE1EEF0E080818E7F8083E2EE21
:1038D000F0E0808181608083808188608083F8014E
:1038E00080818E7F8083888180618883DF91CF9102
:1038F0001F910F910895E8EDF0E080818F7E808325
:10390000E7EDF0E080818160808384E082BF81E028
:1039100080931E040E94381C0895E8EDF0E0808139
:103920008E7F80831092E20008951092DA00109248
:10393000E10008951F920F920FB60F9211242F935A
:103940003F934F935F936F937F938F939F93AF9327
:10395000BF93EF93FF938091E10082FF0BC08091B2
:10396000E20082FF07C08091E1008B7F8093E1003D
:103970000E94F91E8091DA0080FF19C08091D80062
:1039800080FF15C08091DA008E7F8093DA008091ED
:10399000D90080FF96C080E189BD82E189BD09B46C
:1039A00000FEFDCF81E080931F040E94DF1880910C
:1039B000E10080FF19C08091E20080FF15C0809176
:1039C000E2008E7F8093E2008091E200806180932C
:1039D000E2008091D80080628093D80019BC85E015
:1039E00080931F040E94F3188091E10084FF2BC094
:1039F0008091E20084FF27C080E189BD82E189BD1A
:103A000089B5982F917080FFFBCF8091D8008F7D72
:103A10008093D8008091E1008F7E8093E1008091B7
:103A2000E2008F7E8093E2008091E20081608093CB
:103A3000E20080911B04882309F449C084E080934C
:103A40001F040E94FC188091E10083FF29C080912F
:103A5000E20083FF25C08091E100877F8093E10031
:103A600082E080931F0410921B048091E1008E7FFE
:103A70008093E1008091E2008E7F8093E20080914C
:103A8000E20080618093E20042E060E080E00E941A
:103A90009A1B8091F00088608093F0000E94F018DB
:103AA000FF91EF91BF91AF919F918F917F916F9116
:103AB0005F914F913F912F910F900FBE0F901F90EC
:103AC000189519BC10921F040E94ED1870CF8091B8
:103AD000E30087FD93E090931F04B3CF1F920F92F2
:103AE0000FB60F9211242F933F934F935F936F93D1
:103AF0007F938F939F93AF93BF93CF93DF93EF9376
:103B0000FF93D091E900DF708091EC00C82FC17065
:103B100080FDC0E81092E9008091F000877F8093DB
:103B2000F00078940E94B21D1092E9008091F0009C
:103B300088608093F000CD2BCF70C093E900FF9197
:103B4000EF91DF91CF91BF91AF919F918F917F9135
:103B50006F915F914F913F912F910F900FBE0F90FA
:103B60001F901895AAE2B0E0E8EBFDE10C943E1F2F
:103B700080E294E02091F100FC012193CF01F4E078
:103B800088329F07B9F70E941C198091E80083FFD3
:103B90001EC180912004909121049A3008F017C131
:103BA000E92FF0E0ED53F04E0C94291F803899F086
:103BB000823809F00CC1809124048F70873008F09E
:103BC00006C18093E9008091EB0085FB882780F98E
:103BD0001092E90006C080911C0490911D0491117F
:103BE00082609091E800977F9093E8008093F100C5
:103BF0001092F1008091E8008E77E5C0882309F4E7
:103C0000D3C0823009F0E3C0809122048111D6C074
:103C1000809124048F702FEF280F263008F0D7C032
:103C20008093E9002091EB0020FFC8C0933031F46D
:103C30008091EB0080628093EB00C0C09091EB001C
:103C400090619093EB0021E030E001C0220F8A9553
:103C5000EAF72093EA001092EA008091EB00886076
:103C6000EACF8111B4C0109122041F778091E30044
:103C70008078812B8093E3008091E800877F809398
:103C8000E8000E94CE1B8091E80080FFFCCF80916D
:103C9000E30080688093E30082E0111183E0809369
:103CA0001F0495C08058823008F091C08091220492
:103CB000909123048C3D23E09207A1F583E08A8351
:103CC0008AE289834FB7F894DE01139620E03EE044
:103CD00051E2E32FF0E050935700E49120FF03C03E
:103CE000E295EF703F5FEF708E2F90E0EA30C0F00A
:103CF000C7968D939D932F5F243159F74FBF8091C5
:103D0000E800877F8093E8006AE270E0CE010196C8
:103D10000E94DD1A8091E8008B778093E80057C0FD
:103D2000C096E7CF6091240470912504AE014F5FE7
:103D30005F4F0E941D1ABC01892B09F448C0909165
:103D4000E800977F9093E80089819A810E943B1B4D
:103D5000E1CF8038E1F58091E800877F8093E8002B
:103D600080911B048093F10045CF811130C0909168
:103D70002204923060F58091E800877F8093E8000C
:103D800090931B040E94CE1B80911B04882311F08A
:103D900084E005C08091E30087FDFACF81E0809345
:103DA0001F040E94071913C080912204813079F406
:103DB00081E0933009F080E080931D041092E900C7
:103DC0008091E800877F8093E8000E94CE1B80915D
:103DD000E80083FF0AC08091E800877F8093E800B5
:103DE0008091EB0080628093EB00AA96E3E00C9454
:103DF0005A1F0895CF9380911F048823A1F0C0918A
:103E0000E900CF709091EC00892F817090FD80E8DF
:103E1000C82B1092E9008091E80083FD0E94B21D3A
:103E2000CF70C093E900CF910895AA1BBB1B51E14D
:103E300007C0AA1FBB1FA617B70710F0A61BB70B1A
:103E4000881F991F5A95A9F780959095BC01CD01BF
:103E50000895EE0FFF1F0590F491E02D09942F9225
:103E60003F924F925F926F927F928F929F92AF920A
:103E7000BF92CF92DF92EF92FF920F931F93CF9357
:103E8000DF93CDB7DEB7CA1BDB0B0FB6F894DEBFEE
:103E90000FBECDBF09942A88398848885F846E8414
:103EA0007D848C849B84AA84B984C884DF80EE805E
:103EB000FD800C811B81AA81B981CE0FD11D0FB667
:103EC000F894DEBF0FBECDBFED010895FB01DC010C
:103ED00004C08D910190801921F441505040C8F7E1
:103EE000881B990B0895F999FECF92BD81BDF89A70
:103EF000992780B50895A8E1B0E042E050E00C9425
:103F0000A71F262FF999FECF92BD81BDF89A019780
:103F100000B4021639F01FBA20BD0FB6F894FA9A11
:103F2000F99A0FBE08950396272F0E94821F0E94C0
:103F3000811F252F0E94821F242F0C94821F01961F
:103F4000272F0E94821F0C94811FDC01CB01FC01F2
:103F5000F999FECF06C0F2BDE1BDF89A319600B4E2
:103F60000D9241505040B8F70895F894FFCFE00407
:103F7000E0041105110540054005400540059E057A
:103F80002A0639063906D61DFE1DE71EFE1DE71E50
:0A3F9000311E521EE71EA91EB51EC9
:103F9A0089010021007F22000398189D18DD189BD3
:0E3FAA0018DE189C18010008101818100800E6
:00000001FF
